{
  "_format": "hh-sol-artifact-1",
  "contractName": "SaversToken",
  "sourceName": "contracts/savers/SaversToken.sol",
  "abi": [
    {
      "inputs": [
        {
          "internalType": "address",
          "name": "_saversVault",
          "type": "address"
        },
        {
          "internalType": "string",
          "name": "_name",
          "type": "string"
        },
        {
          "internalType": "string",
          "name": "_symbol",
          "type": "string"
        },
        {
          "internalType": "uint8",
          "name": "_decimals",
          "type": "uint8"
        }
      ],
      "stateMutability": "nonpayable",
      "type": "constructor"
    },
    {
      "anonymous": false,
      "inputs": [
        {
          "indexed": true,
          "internalType": "address",
          "name": "owner",
          "type": "address"
        },
        {
          "indexed": true,
          "internalType": "address",
          "name": "spender",
          "type": "address"
        },
        {
          "indexed": false,
          "internalType": "uint256",
          "name": "value",
          "type": "uint256"
        }
      ],
      "name": "Approval",
      "type": "event"
    },
    {
      "anonymous": false,
      "inputs": [
        {
          "indexed": true,
          "internalType": "address",
          "name": "previousOwner",
          "type": "address"
        },
        {
          "indexed": true,
          "internalType": "address",
          "name": "newOwner",
          "type": "address"
        }
      ],
      "name": "OwnershipTransferred",
      "type": "event"
    },
    {
      "anonymous": false,
      "inputs": [
        {
          "indexed": false,
          "internalType": "uint256",
          "name": "interestEarnedForAccount",
          "type": "uint256"
        }
      ],
      "name": "SaversTokenInterestEarned",
      "type": "event"
    },
    {
      "anonymous": false,
      "inputs": [
        {
          "indexed": true,
          "internalType": "address",
          "name": "from",
          "type": "address"
        },
        {
          "indexed": true,
          "internalType": "address",
          "name": "to",
          "type": "address"
        },
        {
          "indexed": false,
          "internalType": "uint256",
          "name": "value",
          "type": "uint256"
        }
      ],
      "name": "Transfer",
      "type": "event"
    },
    {
      "inputs": [
        {
          "internalType": "address",
          "name": "owner",
          "type": "address"
        },
        {
          "internalType": "address",
          "name": "spender",
          "type": "address"
        }
      ],
      "name": "allowance",
      "outputs": [
        {
          "internalType": "uint256",
          "name": "",
          "type": "uint256"
        }
      ],
      "stateMutability": "view",
      "type": "function"
    },
    {
      "inputs": [
        {
          "internalType": "address",
          "name": "spender",
          "type": "address"
        },
        {
          "internalType": "uint256",
          "name": "amount",
          "type": "uint256"
        }
      ],
      "name": "approve",
      "outputs": [
        {
          "internalType": "bool",
          "name": "",
          "type": "bool"
        }
      ],
      "stateMutability": "nonpayable",
      "type": "function"
    },
    {
      "inputs": [
        {
          "internalType": "address",
          "name": "account",
          "type": "address"
        }
      ],
      "name": "balanceOf",
      "outputs": [
        {
          "internalType": "uint256",
          "name": "",
          "type": "uint256"
        }
      ],
      "stateMutability": "view",
      "type": "function"
    },
    {
      "inputs": [
        {
          "internalType": "address",
          "name": "account",
          "type": "address"
        }
      ],
      "name": "balanceOfPrincipal",
      "outputs": [
        {
          "internalType": "uint256",
          "name": "",
          "type": "uint256"
        }
      ],
      "stateMutability": "view",
      "type": "function"
    },
    {
      "inputs": [
        {
          "internalType": "address",
          "name": "account",
          "type": "address"
        },
        {
          "internalType": "uint256",
          "name": "amount",
          "type": "uint256"
        }
      ],
      "name": "burn",
      "outputs": [],
      "stateMutability": "nonpayable",
      "type": "function"
    },
    {
      "inputs": [],
      "name": "decimals",
      "outputs": [
        {
          "internalType": "uint8",
          "name": "",
          "type": "uint8"
        }
      ],
      "stateMutability": "view",
      "type": "function"
    },
    {
      "inputs": [
        {
          "internalType": "address",
          "name": "spender",
          "type": "address"
        },
        {
          "internalType": "uint256",
          "name": "subtractedValue",
          "type": "uint256"
        }
      ],
      "name": "decreaseAllowance",
      "outputs": [
        {
          "internalType": "bool",
          "name": "",
          "type": "bool"
        }
      ],
      "stateMutability": "nonpayable",
      "type": "function"
    },
    {
      "inputs": [
        {
          "internalType": "address",
          "name": "account",
          "type": "address"
        },
        {
          "internalType": "uint256",
          "name": "amount",
          "type": "uint256"
        }
      ],
      "name": "getPrincialOnly",
      "outputs": [
        {
          "internalType": "uint256",
          "name": "",
          "type": "uint256"
        }
      ],
      "stateMutability": "view",
      "type": "function"
    },
    {
      "inputs": [
        {
          "internalType": "address",
          "name": "spender",
          "type": "address"
        },
        {
          "internalType": "uint256",
          "name": "addedValue",
          "type": "uint256"
        }
      ],
      "name": "increaseAllowance",
      "outputs": [
        {
          "internalType": "bool",
          "name": "",
          "type": "bool"
        }
      ],
      "stateMutability": "nonpayable",
      "type": "function"
    },
    {
      "inputs": [
        {
          "internalType": "address",
          "name": "to",
          "type": "address"
        },
        {
          "internalType": "uint256",
          "name": "amount",
          "type": "uint256"
        }
      ],
      "name": "mint",
      "outputs": [],
      "stateMutability": "nonpayable",
      "type": "function"
    },
    {
      "inputs": [],
      "name": "name",
      "outputs": [
        {
          "internalType": "string",
          "name": "",
          "type": "string"
        }
      ],
      "stateMutability": "view",
      "type": "function"
    },
    {
      "inputs": [],
      "name": "owner",
      "outputs": [
        {
          "internalType": "address",
          "name": "",
          "type": "address"
        }
      ],
      "stateMutability": "view",
      "type": "function"
    },
    {
      "inputs": [],
      "name": "renounceOwnership",
      "outputs": [],
      "stateMutability": "nonpayable",
      "type": "function"
    },
    {
      "inputs": [],
      "name": "saversVault",
      "outputs": [
        {
          "internalType": "address",
          "name": "",
          "type": "address"
        }
      ],
      "stateMutability": "view",
      "type": "function"
    },
    {
      "inputs": [],
      "name": "symbol",
      "outputs": [
        {
          "internalType": "string",
          "name": "",
          "type": "string"
        }
      ],
      "stateMutability": "view",
      "type": "function"
    },
    {
      "inputs": [],
      "name": "totalPrincipalSupply",
      "outputs": [
        {
          "internalType": "uint256",
          "name": "",
          "type": "uint256"
        }
      ],
      "stateMutability": "view",
      "type": "function"
    },
    {
      "inputs": [],
      "name": "totalSupply",
      "outputs": [
        {
          "internalType": "uint256",
          "name": "",
          "type": "uint256"
        }
      ],
      "stateMutability": "view",
      "type": "function"
    },
    {
      "inputs": [
        {
          "internalType": "address",
          "name": "recipient",
          "type": "address"
        },
        {
          "internalType": "uint256",
          "name": "amount",
          "type": "uint256"
        }
      ],
      "name": "transfer",
      "outputs": [
        {
          "internalType": "bool",
          "name": "",
          "type": "bool"
        }
      ],
      "stateMutability": "nonpayable",
      "type": "function"
    },
    {
      "inputs": [
        {
          "internalType": "address",
          "name": "sender",
          "type": "address"
        },
        {
          "internalType": "address",
          "name": "recipient",
          "type": "address"
        },
        {
          "internalType": "uint256",
          "name": "amount",
          "type": "uint256"
        }
      ],
      "name": "transferFrom",
      "outputs": [
        {
          "internalType": "bool",
          "name": "",
          "type": "bool"
        }
      ],
      "stateMutability": "nonpayable",
      "type": "function"
    },
    {
      "inputs": [
        {
          "internalType": "address",
          "name": "newOwner",
          "type": "address"
        }
      ],
      "name": "transferOwnership",
      "outputs": [],
      "stateMutability": "nonpayable",
      "type": "function"
    }
  ],
  "bytecode": "0x60806040523480156200001157600080fd5b50604051620027e6380380620027e6833981810160405281019062000037919062000311565b8282816003908051906020019062000051929190620001c1565b5080600490805190602001906200006a929190620001c1565b5050506200008d62000081620000f360201b60201c565b620000fb60201b60201c565b83600660006101000a81548173ffffffffffffffffffffffffffffffffffffffff021916908373ffffffffffffffffffffffffffffffffffffffff16021790555080600660146101000a81548160ff021916908360ff1602179055505050505062000594565b600033905090565b6000600560009054906101000a900473ffffffffffffffffffffffffffffffffffffffff16905081600560006101000a81548173ffffffffffffffffffffffffffffffffffffffff021916908373ffffffffffffffffffffffffffffffffffffffff1602179055508173ffffffffffffffffffffffffffffffffffffffff168173ffffffffffffffffffffffffffffffffffffffff167f8be0079c531659141344cd1fd0a4f28419497f9722a3daafe3b4186f6b6457e060405160405180910390a35050565b828054620001cf9062000485565b90600052602060002090601f016020900481019282620001f357600085556200023f565b82601f106200020e57805160ff19168380011785556200023f565b828001600101855582156200023f579182015b828111156200023e57825182559160200191906001019062000221565b5b5090506200024e919062000252565b5090565b5b808211156200026d57600081600090555060010162000253565b5090565b6000620002886200028284620003d8565b620003af565b905082815260208101848484011115620002a157600080fd5b620002ae8482856200044f565b509392505050565b600081519050620002c78162000560565b92915050565b600082601f830112620002df57600080fd5b8151620002f184826020860162000271565b91505092915050565b6000815190506200030b816200057a565b92915050565b600080600080608085870312156200032857600080fd5b60006200033887828801620002b6565b945050602085015167ffffffffffffffff8111156200035657600080fd5b6200036487828801620002cd565b935050604085015167ffffffffffffffff8111156200038257600080fd5b6200039087828801620002cd565b9250506060620003a387828801620002fa565b91505092959194509250565b6000620003bb620003ce565b9050620003c98282620004bb565b919050565b6000604051905090565b600067ffffffffffffffff821115620003f657620003f562000520565b5b62000401826200054f565b9050602081019050919050565b60006200041b8262000422565b9050919050565b600073ffffffffffffffffffffffffffffffffffffffff82169050919050565b600060ff82169050919050565b60005b838110156200046f57808201518184015260208101905062000452565b838111156200047f576000848401525b50505050565b600060028204905060018216806200049e57607f821691505b60208210811415620004b557620004b4620004f1565b5b50919050565b620004c6826200054f565b810181811067ffffffffffffffff82111715620004e857620004e762000520565b5b80604052505050565b7f4e487b7100000000000000000000000000000000000000000000000000000000600052602260045260246000fd5b7f4e487b7100000000000000000000000000000000000000000000000000000000600052604160045260246000fd5b6000601f19601f8301169050919050565b6200056b816200040e565b81146200057757600080fd5b50565b620005858162000442565b81146200059157600080fd5b50565b61224280620005a46000396000f3fe608060405234801561001057600080fd5b506004361061012c5760003560e01c806370a08231116100ad5780639dc29fac116100715780639dc29fac14610349578063a457c2d714610365578063a9059cbb14610395578063dd62ed3e146103c5578063f2fde38b146103f55761012c565b806370a08231146102a3578063715018a6146102d35780637e3388ac146102dd5780638da5cb5b1461030d57806395d89b411461032b5761012c565b806323b872dd116100f457806323b872dd146101eb578063313ce5671461021b578063395093511461023957806340c10f19146102695780635b8bd9bd146102855761012c565b806306fdde0314610131578063095ea7b31461014f57806318160ddd1461017f57806318bd29c21461019d578063226dc93f146101cd575b600080fd5b610139610411565b6040516101469190611a15565b60405180910390f35b61016960048036038101906101649190611761565b6104a3565b60405161017691906119fa565b60405180910390f35b6101876104c1565b6040516101949190611bb7565b60405180910390f35b6101b760048036038101906101b29190611761565b61057a565b6040516101c49190611bb7565b60405180910390f35b6101d56105d6565b6040516101e29190611bb7565b60405180910390f35b61020560048036038101906102009190611712565b6105e5565b60405161021291906119fa565b60405180910390f35b610223610607565b6040516102309190611bd2565b60405180910390f35b610253600480360381019061024e9190611761565b61061e565b60405161026091906119fa565b60405180910390f35b610283600480360381019061027e9190611761565b6106ca565b005b61028d610754565b60405161029a91906119df565b60405180910390f35b6102bd60048036038101906102b891906116ad565b61077a565b6040516102ca9190611bb7565b60405180910390f35b6102db610841565b005b6102f760048036038101906102f291906116ad565b6108c9565b6040516103049190611bb7565b60405180910390f35b6103156108db565b60405161032291906119df565b60405180910390f35b610333610905565b6040516103409190611a15565b60405180910390f35b610363600480360381019061035e9190611761565b610997565b005b61037f600480360381019061037a9190611761565b610a21565b60405161038c91906119fa565b60405180910390f35b6103af60048036038101906103aa9190611761565b610b0c565b6040516103bc91906119fa565b60405180910390f35b6103df60048036038101906103da91906116d6565b610b2c565b6040516103ec9190611bb7565b60405180910390f35b61040f600480360381019061040a91906116ad565b610bb3565b005b60606003805461042090611da6565b80601f016020809104026020016040519081016040528092919081815260200182805461044c90611da6565b80156104995780601f1061046e57610100808354040283529160200191610499565b820191906000526020600020905b81548152906001019060200180831161047c57829003601f168201915b5050505050905090565b60006104b76104b0610cab565b8484610cb3565b6001905092915050565b6000600660009054906101000a900473ffffffffffffffffffffffffffffffffffffffff1673ffffffffffffffffffffffffffffffffffffffff1663b7d93f346040518163ffffffff1660e01b815260040160206040518083038186803b15801561052b57600080fd5b505afa15801561053f573d6000803e3d6000fd5b505050506040513d601f19601f82011682018060405250810190610563919061179d565b61056b610e7e565b6105759190611c09565b905090565b6000806105868461077a565b670de0b6b3a764000061059886610e88565b856105a39190611c90565b6105ad9190611c90565b6105b79190611c5f565b9050670de0b6b3a7640000816105cd9190611c5f565b91505092915050565b60006105e0610e7e565b905090565b60006105fb84846105f6878661057a565b610ed0565b50600190509392505050565b6000600660149054906101000a900460ff16905090565b60006106c061062b610cab565b848460016000610639610cab565b73ffffffffffffffffffffffffffffffffffffffff1673ffffffffffffffffffffffffffffffffffffffff16815260200190815260200160002060008873ffffffffffffffffffffffffffffffffffffffff1673ffffffffffffffffffffffffffffffffffffffff168152602001908152602001600020546106bb9190611c09565b610cb3565b6001905092915050565b6106d2610cab565b73ffffffffffffffffffffffffffffffffffffffff166106f06108db565b73ffffffffffffffffffffffffffffffffffffffff1614610746576040517f08c379a000000000000000000000000000000000000000000000000000000000815260040161073d90611af7565b60405180910390fd5b6107508282610fc8565b5050565b600660009054906101000a900473ffffffffffffffffffffffffffffffffffffffff1681565b6000600660009054906101000a900473ffffffffffffffffffffffffffffffffffffffff1673ffffffffffffffffffffffffffffffffffffffff1663d654c931836040518263ffffffff1660e01b81526004016107d791906119df565b60206040518083038186803b1580156107ef57600080fd5b505afa158015610803573d6000803e3d6000fd5b505050506040513d601f19601f82011682018060405250810190610827919061179d565b61083083610e88565b61083a9190611c09565b9050919050565b610849610cab565b73ffffffffffffffffffffffffffffffffffffffff166108676108db565b73ffffffffffffffffffffffffffffffffffffffff16146108bd576040517f08c379a00000000000000000000000000000000000000000000000000000000081526004016108b490611af7565b60405180910390fd5b6108c76000611128565b565b60006108d482610e88565b9050919050565b6000600560009054906101000a900473ffffffffffffffffffffffffffffffffffffffff16905090565b60606004805461091490611da6565b80601f016020809104026020016040519081016040528092919081815260200182805461094090611da6565b801561098d5780601f106109625761010080835404028352916020019161098d565b820191906000526020600020905b81548152906001019060200180831161097057829003601f168201915b5050505050905090565b61099f610cab565b73ffffffffffffffffffffffffffffffffffffffff166109bd6108db565b73ffffffffffffffffffffffffffffffffffffffff1614610a13576040517f08c379a0000000000000000000000000000000000000000000000000000000008152600401610a0a90611af7565b60405180910390fd5b610a1d82826111ee565b5050565b60008060016000610a30610cab565b73ffffffffffffffffffffffffffffffffffffffff1673ffffffffffffffffffffffffffffffffffffffff16815260200190815260200160002060008573ffffffffffffffffffffffffffffffffffffffff1673ffffffffffffffffffffffffffffffffffffffff16815260200190815260200160002054905082811015610aed576040517f08c379a0000000000000000000000000000000000000000000000000000000008152600401610ae490611b77565b60405180910390fd5b610b01610af8610cab565b85858403610cb3565b600191505092915050565b6000610b2183610b1c338561057a565b6113c5565b506001905092915050565b6000600160008473ffffffffffffffffffffffffffffffffffffffff1673ffffffffffffffffffffffffffffffffffffffff16815260200190815260200160002060008373ffffffffffffffffffffffffffffffffffffffff1673ffffffffffffffffffffffffffffffffffffffff16815260200190815260200160002054905092915050565b610bbb610cab565b73ffffffffffffffffffffffffffffffffffffffff16610bd96108db565b73ffffffffffffffffffffffffffffffffffffffff1614610c2f576040517f08c379a0000000000000000000000000000000000000000000000000000000008152600401610c2690611af7565b60405180910390fd5b600073ffffffffffffffffffffffffffffffffffffffff168173ffffffffffffffffffffffffffffffffffffffff161415610c9f576040517f08c379a0000000000000000000000000000000000000000000000000000000008152600401610c9690611a77565b60405180910390fd5b610ca881611128565b50565b600033905090565b600073ffffffffffffffffffffffffffffffffffffffff168373ffffffffffffffffffffffffffffffffffffffff161415610d23576040517f08c379a0000000000000000000000000000000000000000000000000000000008152600401610d1a90611b57565b60405180910390fd5b600073ffffffffffffffffffffffffffffffffffffffff168273ffffffffffffffffffffffffffffffffffffffff161415610d93576040517f08c379a0000000000000000000000000000000000000000000000000000000008152600401610d8a90611a97565b60405180910390fd5b80600160008573ffffffffffffffffffffffffffffffffffffffff1673ffffffffffffffffffffffffffffffffffffffff16815260200190815260200160002060008473ffffffffffffffffffffffffffffffffffffffff1673ffffffffffffffffffffffffffffffffffffffff168152602001908152602001600020819055508173ffffffffffffffffffffffffffffffffffffffff168373ffffffffffffffffffffffffffffffffffffffff167f8c5be1e5ebec7d5bd14f71427d1e84f3dd0314c0f7b2291e5b200ac8c7c3b92583604051610e719190611bb7565b60405180910390a3505050565b6000600254905090565b60008060008373ffffffffffffffffffffffffffffffffffffffff1673ffffffffffffffffffffffffffffffffffffffff168152602001908152602001600020549050919050565b6000610edd8484846113e3565b6000600160008673ffffffffffffffffffffffffffffffffffffffff1673ffffffffffffffffffffffffffffffffffffffff1681526020019081526020016000206000610f28610cab565b73ffffffffffffffffffffffffffffffffffffffff1673ffffffffffffffffffffffffffffffffffffffff16815260200190815260200160002054905082811015610fa8576040517f08c379a0000000000000000000000000000000000000000000000000000000008152600401610f9f90611ad7565b60405180910390fd5b610fbc85610fb4610cab565b858403610cb3565b60019150509392505050565b600073ffffffffffffffffffffffffffffffffffffffff168273ffffffffffffffffffffffffffffffffffffffff161415611038576040517f08c379a000000000000000000000000000000000000000000000000000000000815260040161102f90611b97565b60405180910390fd5b61104460008383611664565b80600260008282546110569190611c09565b92505081905550806000808473ffffffffffffffffffffffffffffffffffffffff1673ffffffffffffffffffffffffffffffffffffffff16815260200190815260200160002060008282546110ab9190611c09565b925050819055508173ffffffffffffffffffffffffffffffffffffffff16600073ffffffffffffffffffffffffffffffffffffffff167fddf252ad1be2c89b69c2b068fc378daa952ba7f163c4a11628f55a4df523b3ef836040516111109190611bb7565b60405180910390a361112460008383611669565b5050565b6000600560009054906101000a900473ffffffffffffffffffffffffffffffffffffffff16905081600560006101000a81548173ffffffffffffffffffffffffffffffffffffffff021916908373ffffffffffffffffffffffffffffffffffffffff1602179055508173ffffffffffffffffffffffffffffffffffffffff168173ffffffffffffffffffffffffffffffffffffffff167f8be0079c531659141344cd1fd0a4f28419497f9722a3daafe3b4186f6b6457e060405160405180910390a35050565b600073ffffffffffffffffffffffffffffffffffffffff168273ffffffffffffffffffffffffffffffffffffffff16141561125e576040517f08c379a000000000000000000000000000000000000000000000000000000000815260040161125590611b17565b60405180910390fd5b61126a82600083611664565b60008060008473ffffffffffffffffffffffffffffffffffffffff1673ffffffffffffffffffffffffffffffffffffffff168152602001908152602001600020549050818110156112f0576040517f08c379a00000000000000000000000000000000000000000000000000000000081526004016112e790611a57565b60405180910390fd5b8181036000808573ffffffffffffffffffffffffffffffffffffffff1673ffffffffffffffffffffffffffffffffffffffff1681526020019081526020016000208190555081600260008282546113479190611cea565b92505081905550600073ffffffffffffffffffffffffffffffffffffffff168373ffffffffffffffffffffffffffffffffffffffff167fddf252ad1be2c89b69c2b068fc378daa952ba7f163c4a11628f55a4df523b3ef846040516113ac9190611bb7565b60405180910390a36113c083600084611669565b505050565b60006113d96113d2610cab565b84846113e3565b6001905092915050565b600073ffffffffffffffffffffffffffffffffffffffff168373ffffffffffffffffffffffffffffffffffffffff161415611453576040517f08c379a000000000000000000000000000000000000000000000000000000000815260040161144a90611b37565b60405180910390fd5b600073ffffffffffffffffffffffffffffffffffffffff168273ffffffffffffffffffffffffffffffffffffffff1614156114c3576040517f08c379a00000000000000000000000000000000000000000000000000000000081526004016114ba90611a37565b60405180910390fd5b6114ce838383611664565b60008060008573ffffffffffffffffffffffffffffffffffffffff1673ffffffffffffffffffffffffffffffffffffffff16815260200190815260200160002054905081811015611554576040517f08c379a000000000000000000000000000000000000000000000000000000000815260040161154b90611ab7565b60405180910390fd5b8181036000808673ffffffffffffffffffffffffffffffffffffffff1673ffffffffffffffffffffffffffffffffffffffff16815260200190815260200160002081905550816000808573ffffffffffffffffffffffffffffffffffffffff1673ffffffffffffffffffffffffffffffffffffffff16815260200190815260200160002060008282546115e79190611c09565b925050819055508273ffffffffffffffffffffffffffffffffffffffff168473ffffffffffffffffffffffffffffffffffffffff167fddf252ad1be2c89b69c2b068fc378daa952ba7f163c4a11628f55a4df523b3ef8460405161164b9190611bb7565b60405180910390a361165e848484611669565b50505050565b505050565b505050565b60008135905061167d816121de565b92915050565b600081359050611692816121f5565b92915050565b6000815190506116a7816121f5565b92915050565b6000602082840312156116bf57600080fd5b60006116cd8482850161166e565b91505092915050565b600080604083850312156116e957600080fd5b60006116f78582860161166e565b92505060206117088582860161166e565b9150509250929050565b60008060006060848603121561172757600080fd5b60006117358682870161166e565b93505060206117468682870161166e565b925050604061175786828701611683565b9150509250925092565b6000806040838503121561177457600080fd5b60006117828582860161166e565b925050602061179385828601611683565b9150509250929050565b6000602082840312156117af57600080fd5b60006117bd84828501611698565b91505092915050565b6117cf81611d1e565b82525050565b6117de81611d30565b82525050565b60006117ef82611bed565b6117f98185611bf8565b9350611809818560208601611d73565b61181281611e65565b840191505092915050565b600061182a602383611bf8565b915061183582611e76565b604082019050919050565b600061184d602283611bf8565b915061185882611ec5565b604082019050919050565b6000611870602683611bf8565b915061187b82611f14565b604082019050919050565b6000611893602283611bf8565b915061189e82611f63565b604082019050919050565b60006118b6602683611bf8565b91506118c182611fb2565b604082019050919050565b60006118d9602883611bf8565b91506118e482612001565b604082019050919050565b60006118fc602083611bf8565b915061190782612050565b602082019050919050565b600061191f602183611bf8565b915061192a82612079565b604082019050919050565b6000611942602583611bf8565b915061194d826120c8565b604082019050919050565b6000611965602483611bf8565b915061197082612117565b604082019050919050565b6000611988602583611bf8565b915061199382612166565b604082019050919050565b60006119ab601f83611bf8565b91506119b6826121b5565b602082019050919050565b6119ca81611d5c565b82525050565b6119d981611d66565b82525050565b60006020820190506119f460008301846117c6565b92915050565b6000602082019050611a0f60008301846117d5565b92915050565b60006020820190508181036000830152611a2f81846117e4565b905092915050565b60006020820190508181036000830152611a508161181d565b9050919050565b60006020820190508181036000830152611a7081611840565b9050919050565b60006020820190508181036000830152611a9081611863565b9050919050565b60006020820190508181036000830152611ab081611886565b9050919050565b60006020820190508181036000830152611ad0816118a9565b9050919050565b60006020820190508181036000830152611af0816118cc565b9050919050565b60006020820190508181036000830152611b10816118ef565b9050919050565b60006020820190508181036000830152611b3081611912565b9050919050565b60006020820190508181036000830152611b5081611935565b9050919050565b60006020820190508181036000830152611b7081611958565b9050919050565b60006020820190508181036000830152611b908161197b565b9050919050565b60006020820190508181036000830152611bb08161199e565b9050919050565b6000602082019050611bcc60008301846119c1565b92915050565b6000602082019050611be760008301846119d0565b92915050565b600081519050919050565b600082825260208201905092915050565b6000611c1482611d5c565b9150611c1f83611d5c565b9250827fffffffffffffffffffffffffffffffffffffffffffffffffffffffffffffffff03821115611c5457611c53611dd8565b5b828201905092915050565b6000611c6a82611d5c565b9150611c7583611d5c565b925082611c8557611c84611e07565b5b828204905092915050565b6000611c9b82611d5c565b9150611ca683611d5c565b9250817fffffffffffffffffffffffffffffffffffffffffffffffffffffffffffffffff0483118215151615611cdf57611cde611dd8565b5b828202905092915050565b6000611cf582611d5c565b9150611d0083611d5c565b925082821015611d1357611d12611dd8565b5b828203905092915050565b6000611d2982611d3c565b9050919050565b60008115159050919050565b600073ffffffffffffffffffffffffffffffffffffffff82169050919050565b6000819050919050565b600060ff82169050919050565b60005b83811015611d91578082015181840152602081019050611d76565b83811115611da0576000848401525b50505050565b60006002820490506001821680611dbe57607f821691505b60208210811415611dd257611dd1611e36565b5b50919050565b7f4e487b7100000000000000000000000000000000000000000000000000000000600052601160045260246000fd5b7f4e487b7100000000000000000000000000000000000000000000000000000000600052601260045260246000fd5b7f4e487b7100000000000000000000000000000000000000000000000000000000600052602260045260246000fd5b6000601f19601f8301169050919050565b7f45524332303a207472616e7366657220746f20746865207a65726f206164647260008201527f6573730000000000000000000000000000000000000000000000000000000000602082015250565b7f45524332303a206275726e20616d6f756e7420657863656564732062616c616e60008201527f6365000000000000000000000000000000000000000000000000000000000000602082015250565b7f4f776e61626c653a206e6577206f776e657220697320746865207a65726f206160008201527f6464726573730000000000000000000000000000000000000000000000000000602082015250565b7f45524332303a20617070726f766520746f20746865207a65726f20616464726560008201527f7373000000000000000000000000000000000000000000000000000000000000602082015250565b7f45524332303a207472616e7366657220616d6f756e742065786365656473206260008201527f616c616e63650000000000000000000000000000000000000000000000000000602082015250565b7f45524332303a207472616e7366657220616d6f756e742065786365656473206160008201527f6c6c6f77616e6365000000000000000000000000000000000000000000000000602082015250565b7f4f776e61626c653a2063616c6c6572206973206e6f7420746865206f776e6572600082015250565b7f45524332303a206275726e2066726f6d20746865207a65726f2061646472657360008201527f7300000000000000000000000000000000000000000000000000000000000000602082015250565b7f45524332303a207472616e736665722066726f6d20746865207a65726f20616460008201527f6472657373000000000000000000000000000000000000000000000000000000602082015250565b7f45524332303a20617070726f76652066726f6d20746865207a65726f2061646460008201527f7265737300000000000000000000000000000000000000000000000000000000602082015250565b7f45524332303a2064656372656173656420616c6c6f77616e63652062656c6f7760008201527f207a65726f000000000000000000000000000000000000000000000000000000602082015250565b7f45524332303a206d696e7420746f20746865207a65726f206164647265737300600082015250565b6121e781611d1e565b81146121f257600080fd5b50565b6121fe81611d5c565b811461220957600080fd5b5056fea264697066735822122012208ac78c6ddfc1601903ecf3dba9015a4dc5fbeb171a847d1eacbd636f2e9164736f6c63430008040033",
  "linkReferences": {},
  "deployedLinkReferences": {}
}